{
  "_format": "hh-sol-artifact-1",
  "contractName": "helloNFT",
  "sourceName": "contracts/helloNFT.sol",
  "abi": [
    {
      "inputs": [],
      "stateMutability": "nonpayable",
      "type": "constructor"
    },
    {
      "inputs": [],
      "name": "ApprovalCallerNotOwnerNorApproved",
      "type": "error"
    },
    {
      "inputs": [],
      "name": "ApprovalQueryForNonexistentToken",
      "type": "error"
    },
    {
      "inputs": [],
      "name": "BalanceQueryForZeroAddress",
      "type": "error"
    },
    {
      "inputs": [],
      "name": "MintERC2309QuantityExceedsLimit",
      "type": "error"
    },
    {
      "inputs": [],
      "name": "MintToZeroAddress",
      "type": "error"
    },
    {
      "inputs": [],
      "name": "MintZeroQuantity",
      "type": "error"
    },
    {
      "inputs": [],
      "name": "NotCompatibleWithSpotMints",
      "type": "error"
    },
    {
      "inputs": [
        {
          "internalType": "address",
          "name": "owner",
          "type": "address"
        }
      ],
      "name": "OwnableInvalidOwner",
      "type": "error"
    },
    {
      "inputs": [
        {
          "internalType": "address",
          "name": "account",
          "type": "address"
        }
      ],
      "name": "OwnableUnauthorizedAccount",
      "type": "error"
    },
    {
      "inputs": [],
      "name": "OwnerQueryForNonexistentToken",
      "type": "error"
    },
    {
      "inputs": [],
      "name": "OwnershipNotInitializedForExtraData",
      "type": "error"
    },
    {
      "inputs": [],
      "name": "SequentialMintExceedsLimit",
      "type": "error"
    },
    {
      "inputs": [],
      "name": "SequentialUpToTooSmall",
      "type": "error"
    },
    {
      "inputs": [],
      "name": "SpotMintTokenIdTooSmall",
      "type": "error"
    },
    {
      "inputs": [],
      "name": "TokenAlreadyExists",
      "type": "error"
    },
    {
      "inputs": [],
      "name": "TransferCallerNotOwnerNorApproved",
      "type": "error"
    },
    {
      "inputs": [],
      "name": "TransferFromIncorrectOwner",
      "type": "error"
    },
    {
      "inputs": [],
      "name": "TransferToNonERC721ReceiverImplementer",
      "type": "error"
    },
    {
      "inputs": [],
      "name": "TransferToZeroAddress",
      "type": "error"
    },
    {
      "inputs": [],
      "name": "URIQueryForNonexistentToken",
      "type": "error"
    },
    {
      "anonymous": false,
      "inputs": [
        {
          "indexed": true,
          "internalType": "address",
          "name": "owner",
          "type": "address"
        },
        {
          "indexed": true,
          "internalType": "address",
          "name": "approved",
          "type": "address"
        },
        {
          "indexed": true,
          "internalType": "uint256",
          "name": "tokenId",
          "type": "uint256"
        }
      ],
      "name": "Approval",
      "type": "event"
    },
    {
      "anonymous": false,
      "inputs": [
        {
          "indexed": true,
          "internalType": "address",
          "name": "owner",
          "type": "address"
        },
        {
          "indexed": true,
          "internalType": "address",
          "name": "operator",
          "type": "address"
        },
        {
          "indexed": false,
          "internalType": "bool",
          "name": "approved",
          "type": "bool"
        }
      ],
      "name": "ApprovalForAll",
      "type": "event"
    },
    {
      "anonymous": false,
      "inputs": [
        {
          "indexed": true,
          "internalType": "uint256",
          "name": "fromTokenId",
          "type": "uint256"
        },
        {
          "indexed": false,
          "internalType": "uint256",
          "name": "toTokenId",
          "type": "uint256"
        },
        {
          "indexed": true,
          "internalType": "address",
          "name": "from",
          "type": "address"
        },
        {
          "indexed": true,
          "internalType": "address",
          "name": "to",
          "type": "address"
        }
      ],
      "name": "ConsecutiveTransfer",
      "type": "event"
    },
    {
      "anonymous": false,
      "inputs": [
        {
          "indexed": true,
          "internalType": "address",
          "name": "previousOwner",
          "type": "address"
        },
        {
          "indexed": true,
          "internalType": "address",
          "name": "newOwner",
          "type": "address"
        }
      ],
      "name": "OwnershipTransferred",
      "type": "event"
    },
    {
      "anonymous": false,
      "inputs": [
        {
          "indexed": true,
          "internalType": "address",
          "name": "from",
          "type": "address"
        },
        {
          "indexed": true,
          "internalType": "address",
          "name": "to",
          "type": "address"
        },
        {
          "indexed": true,
          "internalType": "uint256",
          "name": "tokenId",
          "type": "uint256"
        }
      ],
      "name": "Transfer",
      "type": "event"
    },
    {
      "inputs": [
        {
          "internalType": "address",
          "name": "to",
          "type": "address"
        },
        {
          "internalType": "uint256",
          "name": "tokenId",
          "type": "uint256"
        }
      ],
      "name": "approve",
      "outputs": [],
      "stateMutability": "payable",
      "type": "function"
    },
    {
      "inputs": [
        {
          "internalType": "address",
          "name": "owner",
          "type": "address"
        }
      ],
      "name": "balanceOf",
      "outputs": [
        {
          "internalType": "uint256",
          "name": "",
          "type": "uint256"
        }
      ],
      "stateMutability": "view",
      "type": "function"
    },
    {
      "inputs": [
        {
          "internalType": "uint256",
          "name": "tokenId",
          "type": "uint256"
        }
      ],
      "name": "getApproved",
      "outputs": [
        {
          "internalType": "address",
          "name": "",
          "type": "address"
        }
      ],
      "stateMutability": "view",
      "type": "function"
    },
    {
      "inputs": [
        {
          "internalType": "address",
          "name": "owner",
          "type": "address"
        },
        {
          "internalType": "address",
          "name": "operator",
          "type": "address"
        }
      ],
      "name": "isApprovedForAll",
      "outputs": [
        {
          "internalType": "bool",
          "name": "",
          "type": "bool"
        }
      ],
      "stateMutability": "view",
      "type": "function"
    },
    {
      "inputs": [
        {
          "internalType": "string[]",
          "name": "metadataURIs",
          "type": "string[]"
        },
        {
          "internalType": "string[]",
          "name": "descriptions",
          "type": "string[]"
        }
      ],
      "name": "mintMultipleNFTs",
      "outputs": [],
      "stateMutability": "nonpayable",
      "type": "function"
    },
    {
      "inputs": [],
      "name": "name",
      "outputs": [
        {
          "internalType": "string",
          "name": "",
          "type": "string"
        }
      ],
      "stateMutability": "view",
      "type": "function"
    },
    {
      "inputs": [],
      "name": "owner",
      "outputs": [
        {
          "internalType": "address",
          "name": "",
          "type": "address"
        }
      ],
      "stateMutability": "view",
      "type": "function"
    },
    {
      "inputs": [
        {
          "internalType": "uint256",
          "name": "tokenId",
          "type": "uint256"
        }
      ],
      "name": "ownerOf",
      "outputs": [
        {
          "internalType": "address",
          "name": "",
          "type": "address"
        }
      ],
      "stateMutability": "view",
      "type": "function"
    },
    {
      "inputs": [
        {
          "internalType": "uint256",
          "name": "tokenId",
          "type": "uint256"
        }
      ],
      "name": "promptDescription",
      "outputs": [
        {
          "internalType": "string",
          "name": "",
          "type": "string"
        }
      ],
      "stateMutability": "view",
      "type": "function"
    },
    {
      "inputs": [],
      "name": "renounceOwnership",
      "outputs": [],
      "stateMutability": "nonpayable",
      "type": "function"
    },
    {
      "inputs": [
        {
          "internalType": "address",
          "name": "from",
          "type": "address"
        },
        {
          "internalType": "address",
          "name": "to",
          "type": "address"
        },
        {
          "internalType": "uint256",
          "name": "tokenId",
          "type": "uint256"
        }
      ],
      "name": "safeTransferFrom",
      "outputs": [],
      "stateMutability": "payable",
      "type": "function"
    },
    {
      "inputs": [
        {
          "internalType": "address",
          "name": "from",
          "type": "address"
        },
        {
          "internalType": "address",
          "name": "to",
          "type": "address"
        },
        {
          "internalType": "uint256",
          "name": "tokenId",
          "type": "uint256"
        },
        {
          "internalType": "bytes",
          "name": "_data",
          "type": "bytes"
        }
      ],
      "name": "safeTransferFrom",
      "outputs": [],
      "stateMutability": "payable",
      "type": "function"
    },
    {
      "inputs": [
        {
          "internalType": "address",
          "name": "operator",
          "type": "address"
        },
        {
          "internalType": "bool",
          "name": "approved",
          "type": "bool"
        }
      ],
      "name": "setApprovalForAll",
      "outputs": [],
      "stateMutability": "nonpayable",
      "type": "function"
    },
    {
      "inputs": [
        {
          "internalType": "bytes4",
          "name": "interfaceId",
          "type": "bytes4"
        }
      ],
      "name": "supportsInterface",
      "outputs": [
        {
          "internalType": "bool",
          "name": "",
          "type": "bool"
        }
      ],
      "stateMutability": "view",
      "type": "function"
    },
    {
      "inputs": [],
      "name": "symbol",
      "outputs": [
        {
          "internalType": "string",
          "name": "",
          "type": "string"
        }
      ],
      "stateMutability": "view",
      "type": "function"
    },
    {
      "inputs": [
        {
          "internalType": "uint256",
          "name": "tokenId",
          "type": "uint256"
        }
      ],
      "name": "tokenURI",
      "outputs": [
        {
          "internalType": "string",
          "name": "",
          "type": "string"
        }
      ],
      "stateMutability": "view",
      "type": "function"
    },
    {
      "inputs": [],
      "name": "totalMinted",
      "outputs": [
        {
          "internalType": "uint256",
          "name": "",
          "type": "uint256"
        }
      ],
      "stateMutability": "view",
      "type": "function"
    },
    {
      "inputs": [],
      "name": "totalSupply",
      "outputs": [
        {
          "internalType": "uint256",
          "name": "result",
          "type": "uint256"
        }
      ],
      "stateMutability": "view",
      "type": "function"
    },
    {
      "inputs": [
        {
          "internalType": "address",
          "name": "from",
          "type": "address"
        },
        {
          "internalType": "address",
          "name": "to",
          "type": "address"
        },
        {
          "internalType": "uint256",
          "name": "tokenId",
          "type": "uint256"
        }
      ],
      "name": "transferFrom",
      "outputs": [],
      "stateMutability": "payable",
      "type": "function"
    },
    {
      "inputs": [
        {
          "internalType": "address",
          "name": "newOwner",
          "type": "address"
        }
      ],
      "name": "transferOwnership",
      "outputs": [],
      "stateMutability": "nonpayable",
      "type": "function"
    }
  ],
  "bytecode": "0x60806040523480156200001157600080fd5b50336040518060400160405280600581526020017f68656c6c6f0000000000000000000000000000000000000000000000000000008152506040518060400160405280600381526020017f686c6f0000000000000000000000000000000000000000000000000000000000815250816002908162000090919062000507565b508060039081620000a2919062000507565b50620000b36200019060201b60201c565b600081905550620000c96200019060201b60201c565b620000d96200019560201b60201c565b1015620000f957620000f863fed8210f60e01b620001bd60201b60201c565b5b5050600073ffffffffffffffffffffffffffffffffffffffff168173ffffffffffffffffffffffffffffffffffffffff1603620001705760006040517f1e4fbdf700000000000000000000000000000000000000000000000000000000815260040162000167919062000633565b60405180910390fd5b6200018181620001c760201b60201c565b506000600a8190555062000650565b600090565b60007fffffffffffffffffffffffffffffffffffffffffffffffffffffffffffffffff905090565b8060005260046000fd5b6000600960009054906101000a900473ffffffffffffffffffffffffffffffffffffffff16905081600960006101000a81548173ffffffffffffffffffffffffffffffffffffffff021916908373ffffffffffffffffffffffffffffffffffffffff1602179055508173ffffffffffffffffffffffffffffffffffffffff168173ffffffffffffffffffffffffffffffffffffffff167f8be0079c531659141344cd1fd0a4f28419497f9722a3daafe3b4186f6b6457e060405160405180910390a35050565b600081519050919050565b7f4e487b7100000000000000000000000000000000000000000000000000000000600052604160045260246000fd5b7f4e487b7100000000000000000000000000000000000000000000000000000000600052602260045260246000fd5b600060028204905060018216806200030f57607f821691505b602082108103620003255762000324620002c7565b5b50919050565b60008190508160005260206000209050919050565b60006020601f8301049050919050565b600082821b905092915050565b6000600883026200038f7fffffffffffffffffffffffffffffffffffffffffffffffffffffffffffffffff8262000350565b6200039b868362000350565b95508019841693508086168417925050509392505050565b6000819050919050565b6000819050919050565b6000620003e8620003e2620003dc84620003b3565b620003bd565b620003b3565b9050919050565b6000819050919050565b6200040483620003c7565b6200041c6200041382620003ef565b8484546200035d565b825550505050565b600090565b6200043362000424565b62000440818484620003f9565b505050565b5b8181101562000468576200045c60008262000429565b60018101905062000446565b5050565b601f821115620004b75762000481816200032b565b6200048c8462000340565b810160208510156200049c578190505b620004b4620004ab8562000340565b83018262000445565b50505b505050565b600082821c905092915050565b6000620004dc60001984600802620004bc565b1980831691505092915050565b6000620004f78383620004c9565b9150826002028217905092915050565b62000512826200028d565b67ffffffffffffffff8111156200052e576200052d62000298565b5b6200053a8254620002f6565b620005478282856200046c565b600060209050601f8311600181146200057f57600084156200056a578287015190505b620005768582620004e9565b865550620005e6565b601f1984166200058f866200032b565b60005b82811015620005b95784890151825560018201915060208501945060208101905062000592565b86831015620005d95784890151620005d5601f891682620004c9565b8355505b6001600288020188555050505b505050505050565b600073ffffffffffffffffffffffffffffffffffffffff82169050919050565b60006200061b82620005ee565b9050919050565b6200062d816200060e565b82525050565b60006020820190506200064a600083018462000622565b92915050565b6127aa80620006606000396000f3fe60806040526004361061011f5760003560e01c80638da5cb5b116100a0578063afd20d3211610064578063afd20d32146103c0578063b88d4fde146103e9578063c87b56dd14610405578063e985e9c514610442578063f2fde38b1461047f5761011f565b80638da5cb5b146102d95780638e5a86381461030457806395d89b4114610341578063a22cb4651461036c578063a2309ff8146103955761011f565b806323b872dd116100e757806323b872dd1461021057806342842e0e1461022c5780636352211e1461024857806370a0823114610285578063715018a6146102c25761011f565b806301ffc9a71461012457806306fdde0314610161578063081812fc1461018c578063095ea7b3146101c957806318160ddd146101e5575b600080fd5b34801561013057600080fd5b5061014b600480360381019061014691906119d3565b6104a8565b6040516101589190611a1b565b60405180910390f35b34801561016d57600080fd5b5061017661053a565b6040516101839190611ac6565b60405180910390f35b34801561019857600080fd5b506101b360048036038101906101ae9190611b1e565b6105cc565b6040516101c09190611b8c565b60405180910390f35b6101e360048036038101906101de9190611bd3565b61062a565b005b3480156101f157600080fd5b506101fa61063a565b6040516102079190611c22565b60405180910390f35b61022a60048036038101906102259190611c3d565b610687565b005b61024660048036038101906102419190611c3d565b610948565b005b34801561025457600080fd5b5061026f600480360381019061026a9190611b1e565b610968565b60405161027c9190611b8c565b60405180910390f35b34801561029157600080fd5b506102ac60048036038101906102a79190611c90565b61097a565b6040516102b99190611c22565b60405180910390f35b3480156102ce57600080fd5b506102d7610a11565b005b3480156102e557600080fd5b506102ee610a25565b6040516102fb9190611b8c565b60405180910390f35b34801561031057600080fd5b5061032b60048036038101906103269190611b1e565b610a4f565b6040516103389190611ac6565b60405180910390f35b34801561034d57600080fd5b50610356610b3c565b6040516103639190611ac6565b60405180910390f35b34801561037857600080fd5b50610393600480360381019061038e9190611ce9565b610bce565b005b3480156103a157600080fd5b506103aa610cd9565b6040516103b79190611c22565b60405180910390f35b3480156103cc57600080fd5b506103e760048036038101906103e29190611f44565b610cdf565b005b61040360048036038101906103fe919061205d565b610e13565b005b34801561041157600080fd5b5061042c60048036038101906104279190611b1e565b610e65565b6040516104399190611ac6565b60405180910390f35b34801561044e57600080fd5b50610469600480360381019061046491906120e0565b610f52565b6040516104769190611a1b565b60405180910390f35b34801561048b57600080fd5b506104a660048036038101906104a19190611c90565b610fe6565b005b60006301ffc9a760e01b827bffffffffffffffffffffffffffffffffffffffffffffffffffffffff1916148061050357506380ac58cd60e01b827bffffffffffffffffffffffffffffffffffffffffffffffffffffffff1916145b806105335750635b5e139f60e01b827bffffffffffffffffffffffffffffffffffffffffffffffffffffffff1916145b9050919050565b6060600280546105499061214f565b80601f01602080910402602001604051908101604052809291908181526020018280546105759061214f565b80156105c25780601f10610597576101008083540402835291602001916105c2565b820191906000526020600020905b8154815290600101906020018083116105a557829003601f168201915b5050505050905090565b60006105d78261106c565b6105ec576105eb63cf4700e460e01b611118565b5b6006600083815260200190815260200160002060000160009054906101000a900473ffffffffffffffffffffffffffffffffffffffff169050919050565b61063682826001611122565b5050565b6000610644611251565b600154600054030390507fffffffffffffffffffffffffffffffffffffffffffffffffffffffffffffffff610677611256565b1461068457600854810190505b90565b60006106928261127e565b905073ffffffffffffffffffffffffffffffffffffffff8473ffffffffffffffffffffffffffffffffffffffff161693508373ffffffffffffffffffffffffffffffffffffffff168173ffffffffffffffffffffffffffffffffffffffff16146107075761070663a114810060e01b611118565b5b60008061071384611397565b9150915061072981876107246113be565b6113c6565b6107545761073e866107396113be565b610f52565b610753576107526359c896be60e01b611118565b5b5b610761868686600161140a565b801561076c57600082555b600560008773ffffffffffffffffffffffffffffffffffffffff1673ffffffffffffffffffffffffffffffffffffffff168152602001908152602001600020600081546001900391905081905550600560008673ffffffffffffffffffffffffffffffffffffffff1673ffffffffffffffffffffffffffffffffffffffff168152602001908152602001600020600081546001019190508190555061083a85610816888887611410565b7c020000000000000000000000000000000000000000000000000000000017611438565b600460008681526020019081526020016000208190555060007c02000000000000000000000000000000000000000000000000000000008416036108c057600060018501905060006004600083815260200190815260200160002054036108be5760005481146108bd578360046000838152602001908152602001600020819055505b5b505b600073ffffffffffffffffffffffffffffffffffffffff8673ffffffffffffffffffffffffffffffffffffffff161690508481887fddf252ad1be2c89b69c2b068fc378daa952ba7f163c4a11628f55a4df523b3ef600080a4600081036109325761093163ea553b3460e01b611118565b5b61093f8787876001611463565b50505050505050565b61096383838360405180602001604052806000815250610e13565b505050565b60006109738261127e565b9050919050565b60008073ffffffffffffffffffffffffffffffffffffffff168273ffffffffffffffffffffffffffffffffffffffff16036109c0576109bf638f4eb60460e01b611118565b5b67ffffffffffffffff600560008473ffffffffffffffffffffffffffffffffffffffff1673ffffffffffffffffffffffffffffffffffffffff16815260200190815260200160002054169050919050565b610a19611469565b610a2360006114f0565b565b6000600960009054906101000a900473ffffffffffffffffffffffffffffffffffffffff16905090565b6060610a5a8261106c565b610a99576040517f08c379a0000000000000000000000000000000000000000000000000000000008152600401610a90906121f2565b60405180910390fd5b600c60008381526020019081526020016000208054610ab79061214f565b80601f0160208091040260200160405190810160405280929190818152602001828054610ae39061214f565b8015610b305780601f10610b0557610100808354040283529160200191610b30565b820191906000526020600020905b815481529060010190602001808311610b1357829003601f168201915b50505050509050919050565b606060038054610b4b9061214f565b80601f0160208091040260200160405190810160405280929190818152602001828054610b779061214f565b8015610bc45780601f10610b9957610100808354040283529160200191610bc4565b820191906000526020600020905b815481529060010190602001808311610ba757829003601f168201915b5050505050905090565b8060076000610bdb6113be565b73ffffffffffffffffffffffffffffffffffffffff1673ffffffffffffffffffffffffffffffffffffffff16815260200190815260200160002060008473ffffffffffffffffffffffffffffffffffffffff1673ffffffffffffffffffffffffffffffffffffffff16815260200190815260200160002060006101000a81548160ff0219169083151502179055508173ffffffffffffffffffffffffffffffffffffffff16610c886113be565b73ffffffffffffffffffffffffffffffffffffffff167f17307eab39ab6107e8899845ad3d59bd9653f200f220920489ca2b5937696c3183604051610ccd9190611a1b565b60405180910390a35050565b600a5481565b610ce7611469565b8051825114610d2b576040517f08c379a0000000000000000000000000000000000000000000000000000000008152600401610d229061225e565b60405180910390fd5b6000600a549050600083519050610d49610d43610a25565b826115b6565b60005b81811015610df357848181518110610d6757610d6661227e565b5b6020026020010151600b60008386610d7f91906122dc565b81526020019081526020016000209081610d9991906124bc565b50838181518110610dad57610dac61227e565b5b6020026020010151600c60008386610dc591906122dc565b81526020019081526020016000209081610ddf91906124bc565b508080610deb9061258e565b915050610d4c565b5080600a6000828254610e0691906122dc565b9250508190555050505050565b610e1e848484610687565b60008373ffffffffffffffffffffffffffffffffffffffff163b14610e5f57610e49848484846115d4565b610e5e57610e5d63d1a57ed660e01b611118565b5b5b50505050565b6060610e708261106c565b610eaf576040517f08c379a0000000000000000000000000000000000000000000000000000000008152600401610ea690612648565b60405180910390fd5b600b60008381526020019081526020016000208054610ecd9061214f565b80601f0160208091040260200160405190810160405280929190818152602001828054610ef99061214f565b8015610f465780601f10610f1b57610100808354040283529160200191610f46565b820191906000526020600020905b815481529060010190602001808311610f2957829003601f168201915b50505050509050919050565b6000600760008473ffffffffffffffffffffffffffffffffffffffff1673ffffffffffffffffffffffffffffffffffffffff16815260200190815260200160002060008373ffffffffffffffffffffffffffffffffffffffff1673ffffffffffffffffffffffffffffffffffffffff16815260200190815260200160002060009054906101000a900460ff16905092915050565b610fee611469565b600073ffffffffffffffffffffffffffffffffffffffff168173ffffffffffffffffffffffffffffffffffffffff16036110605760006040517f1e4fbdf70000000000000000000000000000000000000000000000000000000081526004016110579190611b8c565b60405180910390fd5b611069816114f0565b50565b600081611077611251565b1161111257611084611256565b8211156110ae576110a76004600084815260200190815260200160002054611703565b9050611113565b6000548210156111115760005b60006004600085815260200190815260200160002054915081036110ea57826110e390612668565b92506110bb565b60007c01000000000000000000000000000000000000000000000000000000008216149150505b5b5b919050565b8060005260046000fd5b600061112d83610968565b905081801561116f57508073ffffffffffffffffffffffffffffffffffffffff166111566113be565b73ffffffffffffffffffffffffffffffffffffffff1614155b1561119b57611185816111806113be565b610f52565b61119a5761119963cfb3b94260e01b611118565b5b5b836006600085815260200190815260200160002060000160006101000a81548173ffffffffffffffffffffffffffffffffffffffff021916908373ffffffffffffffffffffffffffffffffffffffff160217905550828473ffffffffffffffffffffffffffffffffffffffff168273ffffffffffffffffffffffffffffffffffffffff167f8c5be1e5ebec7d5bd14f71427d1e84f3dd0314c0f7b2291e5b200ac8c7c3b92560405160405180910390a450505050565b600090565b60007fffffffffffffffffffffffffffffffffffffffffffffffffffffffffffffffff905090565b600081611289611251565b1161138157600460008381526020019081526020016000205490506112ac611256565b8211156112d1576112bc81611703565b611392576112d063df2d9b4260e01b611118565b5b600081036113585760005482106112f3576112f263df2d9b4260e01b611118565b5b5b600460008360019003935083815260200190815260200160002054905060008103156113535760007c0100000000000000000000000000000000000000000000000000000000821603156113925761135263df2d9b4260e01b611118565b5b6112f4565b60007c010000000000000000000000000000000000000000000000000000000082160315611392575b61139163df2d9b4260e01b611118565b5b919050565b60008060006006600085815260200190815260200160002090508092508254915050915091565b600033905090565b600073ffffffffffffffffffffffffffffffffffffffff8316925073ffffffffffffffffffffffffffffffffffffffff821691508382148383141790509392505050565b50505050565b60008060e883901c905060e8611427868684611744565b62ffffff16901b9150509392505050565b600073ffffffffffffffffffffffffffffffffffffffff83169250814260a01b178317905092915050565b50505050565b61147161174d565b73ffffffffffffffffffffffffffffffffffffffff1661148f610a25565b73ffffffffffffffffffffffffffffffffffffffff16146114ee576114b261174d565b6040517f118cdaa70000000000000000000000000000000000000000000000000000000081526004016114e59190611b8c565b60405180910390fd5b565b6000600960009054906101000a900473ffffffffffffffffffffffffffffffffffffffff16905081600960006101000a81548173ffffffffffffffffffffffffffffffffffffffff021916908373ffffffffffffffffffffffffffffffffffffffff1602179055508173ffffffffffffffffffffffffffffffffffffffff168173ffffffffffffffffffffffffffffffffffffffff167f8be0079c531659141344cd1fd0a4f28419497f9722a3daafe3b4186f6b6457e060405160405180910390a35050565b6115d0828260405180602001604052806000815250611755565b5050565b60008373ffffffffffffffffffffffffffffffffffffffff1663150b7a026115fa6113be565b8786866040518563ffffffff1660e01b815260040161161c94939291906126e6565b6020604051808303816000875af192505050801561165857506040513d601f19601f820116820180604052508101906116559190612747565b60015b6116b0573d8060008114611688576040519150601f19603f3d011682016040523d82523d6000602084013e61168d565b606091505b5060008151036116a8576116a763d1a57ed660e01b611118565b5b805181602001fd5b63150b7a0260e01b7bffffffffffffffffffffffffffffffffffffffffffffffffffffffff1916817bffffffffffffffffffffffffffffffffffffffffffffffffffffffff191614915050949350505050565b60007c0100000000000000000000000000000000000000000000000000000000821673ffffffffffffffffffffffffffffffffffffffff8316119050919050565b60009392505050565b600033905090565b61175f83836117d1565b60008373ffffffffffffffffffffffffffffffffffffffff163b146117cc57600080549050600083820390505b61179f60008683806001019450866115d4565b6117b4576117b363d1a57ed660e01b611118565b5b81811061178c5781600054146117c957600080fd5b50505b505050565b600080549050600082036117f0576117ef63b562e8dd60e01b611118565b5b6117fd600084838561140a565b61181d8361180e6000866000611410565b61181785611957565b17611438565b6004600083815260200190815260200160002081905550600160406001901b178202600560008573ffffffffffffffffffffffffffffffffffffffff1673ffffffffffffffffffffffffffffffffffffffff16815260200190815260200160002060008282540192505081905550600073ffffffffffffffffffffffffffffffffffffffff8473ffffffffffffffffffffffffffffffffffffffff16169050600081036118d5576118d4632e07630060e01b611118565b5b6000838301905060008390506118e9611256565b600183031115611904576119036381647e3a60e01b611118565b5b5b808360007fddf252ad1be2c89b69c2b068fc378daa952ba7f163c4a11628f55a4df523b3ef600080a481816001019150810361190557816000819055505050506119526000848385611463565b505050565b60006001821460e11b9050919050565b6000604051905090565b600080fd5b600080fd5b60007fffffffff0000000000000000000000000000000000000000000000000000000082169050919050565b6119b08161197b565b81146119bb57600080fd5b50565b6000813590506119cd816119a7565b92915050565b6000602082840312156119e9576119e8611971565b5b60006119f7848285016119be565b91505092915050565b60008115159050919050565b611a1581611a00565b82525050565b6000602082019050611a306000830184611a0c565b92915050565b600081519050919050565b600082825260208201905092915050565b60005b83811015611a70578082015181840152602081019050611a55565b60008484015250505050565b6000601f19601f8301169050919050565b6000611a9882611a36565b611aa28185611a41565b9350611ab2818560208601611a52565b611abb81611a7c565b840191505092915050565b60006020820190508181036000830152611ae08184611a8d565b905092915050565b6000819050919050565b611afb81611ae8565b8114611b0657600080fd5b50565b600081359050611b1881611af2565b92915050565b600060208284031215611b3457611b33611971565b5b6000611b4284828501611b09565b91505092915050565b600073ffffffffffffffffffffffffffffffffffffffff82169050919050565b6000611b7682611b4b565b9050919050565b611b8681611b6b565b82525050565b6000602082019050611ba16000830184611b7d565b92915050565b611bb081611b6b565b8114611bbb57600080fd5b50565b600081359050611bcd81611ba7565b92915050565b60008060408385031215611bea57611be9611971565b5b6000611bf885828601611bbe565b9250506020611c0985828601611b09565b9150509250929050565b611c1c81611ae8565b82525050565b6000602082019050611c376000830184611c13565b92915050565b600080600060608486031215611c5657611c55611971565b5b6000611c6486828701611bbe565b9350506020611c7586828701611bbe565b9250506040611c8686828701611b09565b9150509250925092565b600060208284031215611ca657611ca5611971565b5b6000611cb484828501611bbe565b91505092915050565b611cc681611a00565b8114611cd157600080fd5b50565b600081359050611ce381611cbd565b92915050565b60008060408385031215611d0057611cff611971565b5b6000611d0e85828601611bbe565b9250506020611d1f85828601611cd4565b9150509250929050565b600080fd5b7f4e487b7100000000000000000000000000000000000000000000000000000000600052604160045260246000fd5b611d6682611a7c565b810181811067ffffffffffffffff82111715611d8557611d84611d2e565b5b80604052505050565b6000611d98611967565b9050611da48282611d5d565b919050565b600067ffffffffffffffff821115611dc457611dc3611d2e565b5b602082029050602081019050919050565b600080fd5b600080fd5b600067ffffffffffffffff821115611dfa57611df9611d2e565b5b611e0382611a7c565b9050602081019050919050565b82818337600083830152505050565b6000611e32611e2d84611ddf565b611d8e565b905082815260208101848484011115611e4e57611e4d611dda565b5b611e59848285611e10565b509392505050565b600082601f830112611e7657611e75611d29565b5b8135611e86848260208601611e1f565b91505092915050565b6000611ea2611e9d84611da9565b611d8e565b90508083825260208201905060208402830185811115611ec557611ec4611dd5565b5b835b81811015611f0c57803567ffffffffffffffff811115611eea57611ee9611d29565b5b808601611ef78982611e61565b85526020850194505050602081019050611ec7565b5050509392505050565b600082601f830112611f2b57611f2a611d29565b5b8135611f3b848260208601611e8f565b91505092915050565b60008060408385031215611f5b57611f5a611971565b5b600083013567ffffffffffffffff811115611f7957611f78611976565b5b611f8585828601611f16565b925050602083013567ffffffffffffffff811115611fa657611fa5611976565b5b611fb285828601611f16565b9150509250929050565b600067ffffffffffffffff821115611fd757611fd6611d2e565b5b611fe082611a7c565b9050602081019050919050565b6000612000611ffb84611fbc565b611d8e565b90508281526020810184848401111561201c5761201b611dda565b5b612027848285611e10565b509392505050565b600082601f83011261204457612043611d29565b5b8135612054848260208601611fed565b91505092915050565b6000806000806080858703121561207757612076611971565b5b600061208587828801611bbe565b945050602061209687828801611bbe565b93505060406120a787828801611b09565b925050606085013567ffffffffffffffff8111156120c8576120c7611976565b5b6120d48782880161202f565b91505092959194509250565b600080604083850312156120f7576120f6611971565b5b600061210585828601611bbe565b925050602061211685828601611bbe565b9150509250929050565b7f4e487b7100000000000000000000000000000000000000000000000000000000600052602260045260246000fd5b6000600282049050600182168061216757607f821691505b60208210810361217a57612179612120565b5b50919050565b7f50726f6d707420717565727920666f72206e6f6e6578697374656e7420746f6b60008201527f656e000000000000000000000000000000000000000000000000000000000000602082015250565b60006121dc602283611a41565b91506121e782612180565b604082019050919050565b6000602082019050818103600083015261220b816121cf565b9050919050565b7f4172726179732068617665207468652073616d65206c656e6774680000000000600082015250565b6000612248601b83611a41565b915061225382612212565b602082019050919050565b600060208201905081810360008301526122778161223b565b9050919050565b7f4e487b7100000000000000000000000000000000000000000000000000000000600052603260045260246000fd5b7f4e487b7100000000000000000000000000000000000000000000000000000000600052601160045260246000fd5b60006122e782611ae8565b91506122f283611ae8565b925082820190508082111561230a576123096122ad565b5b92915050565b60008190508160005260206000209050919050565b60006020601f8301049050919050565b600082821b905092915050565b6000600883026123727fffffffffffffffffffffffffffffffffffffffffffffffffffffffffffffffff82612335565b61237c8683612335565b95508019841693508086168417925050509392505050565b6000819050919050565b60006123b96123b46123af84611ae8565b612394565b611ae8565b9050919050565b6000819050919050565b6123d38361239e565b6123e76123df826123c0565b848454612342565b825550505050565b600090565b6123fc6123ef565b6124078184846123ca565b505050565b5b8181101561242b576124206000826123f4565b60018101905061240d565b5050565b601f8211156124705761244181612310565b61244a84612325565b81016020851015612459578190505b61246d61246585612325565b83018261240c565b50505b505050565b600082821c905092915050565b600061249360001984600802612475565b1980831691505092915050565b60006124ac8383612482565b9150826002028217905092915050565b6124c582611a36565b67ffffffffffffffff8111156124de576124dd611d2e565b5b6124e8825461214f565b6124f382828561242f565b600060209050601f8311600181146125265760008415612514578287015190505b61251e85826124a0565b865550612586565b601f19841661253486612310565b60005b8281101561255c57848901518255600182019150602085019450602081019050612537565b868310156125795784890151612575601f891682612482565b8355505b6001600288020188555050505b505050505050565b600061259982611ae8565b91507fffffffffffffffffffffffffffffffffffffffffffffffffffffffffffffffff82036125cb576125ca6122ad565b5b600182019050919050565b7f4552433732314d657461646174613a2055524920717565727920666f72206e6f60008201527f6e6578697374656e7420746f6b656e0000000000000000000000000000000000602082015250565b6000612632602f83611a41565b915061263d826125d6565b604082019050919050565b6000602082019050818103600083015261266181612625565b9050919050565b600061267382611ae8565b915060008203612686576126856122ad565b5b600182039050919050565b600081519050919050565b600082825260208201905092915050565b60006126b882612691565b6126c2818561269c565b93506126d2818560208601611a52565b6126db81611a7c565b840191505092915050565b60006080820190506126fb6000830187611b7d565b6127086020830186611b7d565b6127156040830185611c13565b818103606083015261272781846126ad565b905095945050505050565b600081519050612741816119a7565b92915050565b60006020828403121561275d5761275c611971565b5b600061276b84828501612732565b9150509291505056fea2646970667358221220d2852f66799dc44708800318bb924d37028335b56adfa13f8d97886d5909b79a64736f6c63430008140033",
  "linkReferences": {},
  "deployedLinkReferences": {}
}